:100000000C942A000C9447000C9447000C94470071
:100010000C9447000C9447000C9447000C94470044
:100020000C9447000C9447000C9447000C94E7088C
:100030000C9447000C9447000C9447000C94470024
:100040000C9447000C9447000C9447000C94470014
:100050000C94470011241FBECFE5D8E0DEBFCDBF12
:1000600010E0A0E6B0E0EEE7F7E102C005900D92E7
:10007000A23DB107D9F710E0A2EDB0E001C01D929A
:10008000A53EB107E1F70E944F000C94BD0B0C9404
:1000900000008091D4008F5F8093D40008950E9467
:1000A0003B080E945F040E94D00381E060E041E0D1
:1000B0000E94E60581E061E041E00E94E60581E002
:1000C00062E041E00E94E60581E063E041E00E94D9
:1000D000E60581E064E041E00E94E60581E065E03C
:1000E00041E00E94E60581E066E041E00E94E6050D
:1000F00083E060E041E00E94E60583E061E041E0EA
:100100000E94E60583E062E041E00E94E60583E0AC
:1001100063E041E00E94E60583E064E041E00E9484
:10012000E60583E065E041E00E94E6050F2EF9E474
:100130008F2EF0E09F2EF02D0F2EF0E64F2EF0E0E8
:100140005F2EF02D0F2EF9E62F2EF0E03F2EF02D32
:100150000F2EF7E8AF2EF0E0BF2EF02D0F2EFAE9AC
:100160006F2EF0E07F2EF02D09EA10E00E94DD03F3
:10017000C82F81E040E050E060E87FE394010E94F6
:100180005108C13309F0B6C183E060E00E9428073E
:1001900083E061E00E94280783E062E00E94280774
:1001A00083E063E00E94280783E064E00E94280760
:1001B00083E065E00E94280781E060E00E94280754
:1001C00081E061E00E94280781E062E00E94280748
:1001D00081E063E00E94280781E064E00E94280734
:1001E00081E065E00E94280781E066E00E945006F9
:1001F0000E941F0581E061E00E940A0581E061E044
:100200000E940A0581E061E00E940A05C2010E9485
:10021000F40482E061E00E940A0582E061E00E944D
:100220000A0582E061E00E940A05C1010E94F4040F
:1002300082E069E00E940A050E94DD03C82FC053D6
:10024000C330D0F7CC2EDD24EE24FF24C701B60145
:100250000E94230581E061E00E940A05C701B60102
:100260000E94230582E06AE00E940A050E94DD03E5
:10027000C23010F48A3320F0C230C1F78433B0F7B3
:100280008033A0F3D82FD053CD2EDD24EE24FF24CD
:10029000C701B6010E94230581E062E00E940A05C1
:1002A000C701B6010E942305CC0F8C2F880F880F41
:1002B000C80FDC0FD093D2008FEF94E3ACE08150F5
:1002C0009040A040E1F700C000000E941F0581E0BF
:1002D00061E00E940A0581E061E00E940A0581E078
:1002E00061E00E940A058091D200CAE06C2F0E9452
:1002F0004B0B682F70E080E090E00E942305809116
:10030000D2006C2F0E944B0B692F70E080E090E0D0
:100310000E94230584E790E00E94F40482E061E0FB
:100320000E940A0582E061E00E940A0582E061E025
:100330000E940A058BE790E00E94F40482E06AE0E4
:100340000E940A050E94DD03D82FD053D630D0F783
:10035000CD2EDD24EE24FF24C701B6010E94230523
:1003600081E064E00E940A05C701B6010E942305EE
:1003700082E06BE00E940A050E94DD03C82FC05393
:10038000CA30D0F7CC2EDD24EE24FF24C701B601FD
:100390000E94230581E065E00E940A05C701B601BD
:1003A0000E942305DD0F8D2F880F880FD80FCD0FEA
:1003B000C093D3008FEF94E3ACE081509040A04015
:1003C000E1F700C000000E941F0581E061E00E948B
:1003D0000A0581E061E00E940A0581E061E00E9477
:1003E0000A058091D200CAE06C2F0E944B0B682F47
:1003F00070E080E090E00E9423058091D2006C2F95
:100400000E944B0B692F70E080E090E00E94230572
:10041000C5010E94F4048091D3006C2F0E944B0B05
:10042000682F70E080E090E00E9423058091D30067
:100430006C2F0E944B0B692F70E080E090E00E94CF
:10044000230589E890E00E94F40482E061E00E94C4
:100450000A0582E061E00E940A0582E061E00E94F4
:100460000A058DE890E00E94F40482E06BE00E94AF
:100470000A050E94DD03D82FD053D630D0F7CD2EF9
:10048000DD24EE24FF24C701B6010E94230581E08C
:1004900067E00E940A05C701B6010E94230582E0B9
:1004A0006CE00E940A050E94DD03C82FC053CA30C9
:1004B000D0F7CC2EDD24EE24FF24C701B6010E9424
:1004C000230581E068E00E940A05C701B6010E9489
:1004D0002305DD0F8D2F880F880FD80FCD0FC09308
:1004E000D4008FEF94E3ACE081509040A040E1F75E
:1004F00000C000008091D4008C3339F48091D30087
:100500008F5F8093D3001092D4008091D3008C33FE
:1005100039F48091D2008F5F8093D2001092D30083
:100520008091D200883131F41092D2001092D30021
:100530001092D4000E941F0581E061E00E940A052C
:1005400081E061E00E940A0581E061E00E940A0505
:10055000C3010E94F40482E061E00E940A0582E087
:1005600061E00E940A0582E061E00E940A05609154
:10057000D20070E080E090E00E942305C5010E9457
:10058000F4046091D30070E080E090E00E942305C5
:10059000C5010E94F4046091D40070E080E090E016
:1005A0000E94230583E060E00E94280783E061E069
:1005B0000E94500683E062E00E94500683E063E000
:1005C0000E94500683E064E00E94500683E065E0EC
:1005D0000E9450068091D400CAE06C2F0E944B0B01
:1005E000F801E90FF11D81E060810E94EB06AFE3A5
:1005F000BFE11197F1F700C0000083E060E00E94C6
:10060000500683E061E00E94280783E062E00E94D8
:10061000500683E063E00E94500683E064E00E949D
:10062000500683E065E00E9450068091D4006C2F54
:100630000E944B0BF801E80FF11D81E060810E94E0
:10064000EB068FE39FE10197F1F700C0000083E024
:1006500060E00E94500683E061E00E94500683E063
:1006600062E00E94280783E063E00E94500683E076
:1006700064E00E94500683E065E00E94500680918D
:10068000D3006C2F0E944B0BF801E90FF11D81E0A4
:1006900060810E94EB06AFE3BFE11197F1F700C064
:1006A000000083E060E00E94500683E061E00E9469
:1006B000500683E062E00E94500683E063E00E94FF
:1006C000280783E064E00E94500683E065E00E9412
:1006D00050068091D3006C2F0E944B0BF801E80F5D
:1006E000F11D81E060810E94EB068FE39FE101979D
:1006F000F1F700C0000083E060E00E94500683E054
:1007000061E00E94500683E062E00E94500683E0B0
:1007100063E00E94500683E064E00E94280783E0C3
:1007200065E00E9450068091D2006C2F0E944B0B16
:10073000F801E90FF11D81E060810E94EB06AFE353
:10074000BFE11197F1F700C0000083E060E00E9474
:10075000500683E061E00E94500683E062E00E9460
:10076000500683E063E00E94500683E064E00E944C
:10077000500683E065E00E9428078091D2006C2F2C
:100780000E944B0BF801E80FF11D81E060810E948F
:10079000EB068FE39FE10197F1F700C00000E6CC84
:1007A00084E06FE00E94FF0684E06FE00E94FF0695
:1007B00084E06FEF0E94EB060895DF92EF92FF92C4
:1007C0000F931F93CF93DF93EE24FF24DFEFDE2CF4
:1007D00084E06E2D0E9428078701000F111F000F73
:1007E000111F0D541F4FC4E084E06C2F0E9490062F
:1007F000882371F4F801D08184E06C2F0E94900668
:100800008823D1F38FE39CE90197F1F700C0000042
:10081000CF5F0F5F1F4FC83039F784E06D2D0E9406
:1008200050060894E11CF11C94E0E916F10479F6F5
:100830008D2FDF91CF911F910F91FF90EF90DF905F
:100840000895CF93C82F82E060E00E94280782E0DD
:1008500062E00E94280782E061E00E94500689EF72
:1008600090E00197F1F700C000006C2F62956F7067
:1008700082E00E94060882E061E00E94280789EF7A
:1008800090E00197F1F700C0000082E061E00E9473
:10089000500689EF90E00197F1F700C0000082E078
:1008A0006C2F0E94060882E061E00E94280789EF11
:1008B00090E00197F1F700C00000CF91089582E029
:1008C00064E041E00E94E60582E065E041E00E94CC
:1008D000E60582E066E041E00E94E60582E067E02E
:1008E00041E00E94E60582E060E041E00E94E6050A
:1008F00082E061E041E00E94E60582E062E041E0E2
:100900000E94E6058FE097E20197F1F700C0000032
:1009100082E00E94210483EC99E00197F1F700C086
:10092000000088E20E94210489EF90E00197F1F72E
:1009300000C000008CE00E94210489EF90E0019744
:10094000F1F700C0000081E00E94210483EC99E0EF
:100950000197F1F700C0000086E00E94210489EFB2
:1009600090E00197F1F700C000000895CF93C82FE1
:1009700082E060E00E94500682E062E00E94280768
:1009800082E061E00E94500689EF90E00197F1F764
:1009900000C000006C2F62956F7082E00E94060814
:1009A00082E061E00E94280789EF90E00197F1F76B
:1009B00000C0000082E061E00E94500689EF90E0F4
:1009C0000197F1F700C0000082E06C2F0E9406083A
:1009D00082E061E00E94280789EF90E00197F1F73B
:1009E00000C00000CF9108950F931F93CF938C0107
:1009F000FC018081882351F0C0E00E94B604CF5FE3
:100A0000F801EC0FF11D80818823B9F7CF911F9178
:100A10000F910895282F2150223080F4662371F021
:100A2000613160F4813019F4962F915804C08230FE
:100A300011F4962F9154892F0E942104089581E08A
:100A40000E94210408950F931F93CF93DF93CDB796
:100A5000DEB7A0970FB6F894DEBF0FBECDBF8B01F7
:100A60009C0100501A4C2A493B4301304CE61407C4
:100A70004AEC240748E8340738F40E941F0583EC49
:100A800090E00E94F40410C08E010F5F1F4F20E21F
:100A9000F80111922A95E9F7A8012AE030E00E94B6
:100AA000570BC8010E94F404A0960FB6F894DEBF5D
:100AB0000FBECDBFDF91CF911F910F9108958F92FF
:100AC0009F92AF92BF92CF92DF92EF92FF921F93CD
:100AD000CF93DF934B015C01142F0E940A0A6B0134
:100AE0007C010E9423058CE20E94B604112391F040
:100AF00020E0C1E0D0E0CE01880F991FCC0FDD1FB0
:100B0000CC0FDD1FCC0FDD1FC80FD91F2F5F2117A2
:100B100091F702C0C1E0D0E0C701B6010E94360AD9
:100B20009B01AC01C501B4010E9439096B017C0134
:100B3000BE0180E090E00E94360A9B01AC01C70133
:100B4000B6010E94E80A0E940A0A0E942305DF916A
:100B5000CF911F91FF90EF90DF90CF90BF90AF901B
:100B60009F908F9008958CE10E942104089588E160
:100B70000E9421040895DF92EF92FF920F931F933A
:100B8000CF93DF93082FF92E162FE42ED22E862F27
:100B9000880F880F880F80640E942104C02FDF2DEA
:100BA00000E089910E94B6040F5F0830D1F78E2DC6
:100BB0006D2D0E940A05812F0E94B604DF91CF910E
:100BC0001F910F91FF90EF90DF900895823019F1FF
:100BD000833020F4813009F062C006C0833091F187
:100BE000843009F05CC045C05AB321E030E0C9014F
:100BF000062E02C0880F991F0A94E2F7809585237C
:100C000050E09A0102C0220F331F6A95E2F7B90142
:100C1000682B6ABB089557B321E030E0C901062E66
:100C200002C0880F991F0A94E2F78095852350E04F
:100C30009A0102C0220F331F6A95E2F7B901682BAF
:100C400067BB089554B321E030E0C901062E02C00D
:100C5000880F991F0A94E2F78095852350E09A0146
:100C600002C0220F331F6A95E2F7B901682B64BBFB
:100C7000089551B321E030E0C901062E02C0880F6B
:100C8000991F0A94E2F78095852350E09A0102C0EB
:100C9000220F331F6A95E2F7B901682B61BB0895F3
:100CA0008230B9F0833018F48130C9F505C0833043
:100CB000E9F08430A1F527C02BB381E090E0AC01CE
:100CC00002C0440F551F6A95E2F7BA01622B6BBB55
:100CD000089528B381E090E0AC0102C0440F551F95
:100CE0006A95E2F7BA01622B68BB089525B381E0EB
:100CF00090E0AC0102C0440F551F6A95E2F7BA01BB
:100D0000622B65BB089522B381E090E0AC0102C084
:100D1000440F551F6A95E2F7BA01622B62BB089532
:100D20008230F9F0833020F4813009F052C006C0DF
:100D3000833051F1843009F04CC039C029B381E0CF
:100D400090E0062E02C0880F991F0A94E2F730E067
:100D50008223932302C0959587956A95E2F7982F91
:100D600038C026B381E090E0062E02C0880F991F9C
:100D70000A94E2F730E08223932302C09595879589
:100D80006A95E2F7982F25C023B381E090E0062E04
:100D900002C0880F991F0A94E2F730E08223932360
:100DA00002C0959587956A95E2F7982F12C020B3F7
:100DB00081E090E0062E02C0880F991F0A94E2F7A6
:100DC00030E08223932302C0959587956A95E2F7D8
:100DD000982F892F0895823061F0833018F4813084
:100DE00069F405C0833039F0843041F406C06BBB30
:100DF000089568BB089565BB089562BB089582306D
:100E000061F0833018F4813069F405C0833039F023
:100E1000843041F406C06ABB089567BB089564BB83
:100E2000089561BB0895823061F0833018F48130F9
:100E300069F405C0833039F0843041F406C099B3B9
:100E400005C096B303C093B301C090B3892F089532
:100E50008230C9F0833020F4813009F03DC005C0F4
:100E60008330F9F08430C1F52AC02BB381E090E0E3
:100E7000AC0102C0440F551F6A95E2F7BA016095B4
:100E800062236BBB089528B381E090E0AC0102C0FF
:100E9000440F551F6A95E2F7BA016095622368BB5B
:100EA000089525B381E090E0AC0102C0440F551FC6
:100EB0006A95E2F7BA016095622365BB089522B393
:100EC00081E090E0AC0102C0440F551F6A95E2F743
:100ED000BA016095622362BB0895823061F083306D
:100EE00018F4813069F405C0833039F0843041F45E
:100EF00006C01BBA089518BA089515BA089512BA13
:100F000008958230B9F0833018F48130C9F505C0F6
:100F10008330E9F08430A1F527C02BB381E090E065
:100F2000AC0102C0440F551F6A95E2F7BA0162276F
:100F30006BBB089528B381E090E0AC0102C0440F80
:100F4000551F6A95E2F7BA01622768BB089525B379
:100F500081E090E0AC0102C0440F551F6A95E2F7B2
:100F6000BA01622765BB089522B381E090E0AC012D
:100F700002C0440F551F6A95E2F7BA01622762BBAF
:100F80000895823071F0833018F48130A9F405C0DF
:100F9000833059F0843081F40CC08BB380958BBBC7
:100FA000089588B3809588BB089585B3809585BBE7
:100FB000089582B3809582BB08956F70823089F066
:100FC000833018F4813009F505C0833089F084300E
:100FD000E1F415C08BB3807F8BBB8BB3682B6BBBED
:100FE000089588B3807F88BB88B3682B68BB089559
:100FF00085B3807F85BB85B3682B65BB089582B3BD
:10100000807F82BB82B3682B62BB08956295607F4C
:10101000823089F0833018F4813009F505C08330BF
:1010200089F08430E1F415C08BB38F708BBB8BB328
:10103000682B6BBB089588B38F7088BB88B3682B0F
:1010400068BB089585B38F7085BB85B3682B65BB7E
:10105000089582B38F7082BB82B3682B62BB089500
:10106000413019F0423031F403C00E945006089517
:101070000E94280708958FB780688FBF83B78E7F3F
:1010800083BF83B7826083BF83B78B7F83BF83B700
:101090008F7B83BF83B7877F83BF89B7816089BF19
:1010A0000895AF92BF92CF92DF92EF92FF920F938B
:1010B0001F93CF93DF936A017B015901CB01BA01E2
:1010C0002DEB37E346E859E30E94A209C62FD72F3C
:1010D000182F092FB092E000A092DF00862F9D2FDD
:1010E000A12FB02FBC01CD0120E030E040E85FE34C
:1010F0000E949E09882374F5C701B60120E030E004
:1011000040E853E40E94E80A0E940A0A80E090E066
:101110000E94360A2DEB37E346E859E30E94A20904
:10112000462F572F682F792FCB01BA010E940A0A48
:1011300080E091E0861B970B82BF81E090E0A0E009
:10114000B0E08093D5009093D600A093D700B093E1
:10115000D80032C08C2F9D2FA12FB02FBC01CD0104
:101160000E940A0A6B017C016093D5007093D6003F
:101170008093D7009093D8000E94360A9B01AC015F
:101180008C2F9D2FA12FB02FBC01CD010E943909BA
:1011900020E030E0A9010E949E09882369F00894AC
:1011A000C11CD11CE11CF11CC092D500D092D6000C
:1011B000E092D700F092D800DF91CF911F910F916C
:1011C000FF90EF90DF90CF90BF90AF90089578940C
:1011D0001F920F920FB60F9211242F933F934F93AC
:1011E0005F936F937F938F939F93AF93BF93EF938F
:1011F000FF938091D9009091DA00A091DB00B0912B
:10120000DC000196A11DB11D8093D9009093DA00F6
:10121000A093DB00B093DC004091D5005091D60044
:101220006091D7007091D80084179507A607B7077B
:1012300079F4E091DF00F091E000309749F00995F2
:101240001092D9001092DA001092DB001092DC00AC
:10125000FF91EF91BF91AF919F918F917F916F918E
:101260005F914F913F912F910F900FBE0F901F9064
:1012700018955058BB27AA270ED070C161D130F005
:1012800066D120F031F49F3F11F41EF456C10EF4E4
:10129000E095E7FB4CC1E92F72D180F3BA176207E2
:1012A00073078407950718F071F49EF58AC10EF450
:1012B000E0950B2EBA2FA02D0B01B90190010C0166
:1012C000CA01A0011124FF27591B99F0593F50F47E
:1012D000503E68F11A16F040A22F232F342F4427D6
:1012E000585FF3CF469537952795A795F0405395CE
:1012F000C9F77EF41F16BA0B620B730B840BBAF09E
:101300009150A1F0FF0FBB1F661F771F881FC2F708
:101310000EC0BA0F621F731F841F48F4879577951C
:101320006795B795F7959E3F08F0B3CF9395880FD3
:1013300008F09927EE0F979587950895D4D008F473
:1013400081E008950CD00AC102D140F0F9D030F00C
:1013500021F45F3F19F0EBC0511134C1EEC00FD141
:1013600098F39923C9F35523B1F3951B550BBB276C
:10137000AA2762177307840738F09F5F5F4F220F19
:10138000331F441FAA1FA9F333D00E2E3AF0E0E812
:1013900030D091505040E695001CCAF729D0FE2F5E
:1013A00027D0660F771F881FBB1F261737074807F0
:1013B000AB07B0E809F0BB0B802DBF01FF279358A6
:1013C0005F4F2AF09E3F510568F0B1C0FBC05F3F00
:1013D000ECF3983EDCF3869577956795B795F7958E
:1013E0009F5FC9F7880F911D9695879597F9089586
:1013F000E1E0660F771F881FBB1F62177307840722
:10140000BA0720F0621B730B840BBA0BEE1F88F730
:10141000E0950895BCD088F09F5790F0B92F992798
:10142000B751A0F0D1F0660F771F881F991F1AF0EF
:10143000BA95C9F712C0B13081F0C3D0B1E00895B8
:10144000C0C0672F782F8827B85F39F0B93FCCF339
:10145000869577956795B395D9F73EF490958095E5
:10146000709561957F4F8F4F9F4F0895E89409C005
:1014700097FB3EF490958095709561957F4F8F4FC7
:101480009F4F9923A9F0F92F96E9BB279395F695DD
:10149000879577956795B795F111F8CFFAF4BB0F5B
:1014A00011F460FF1BC06F5F7F4F8F4F9F4F16C0BF
:1014B000882311F096E911C0772321F09EE8872F49
:1014C000762F05C0662371F096E8862F70E060E005
:1014D0002AF09A95660F771F881FDAF7880F96957E
:1014E000879597F90895990F0008550FAA0BE0E822
:1014F000FEEF16161706E807F907C0F012161306D6
:10150000E407F50798F0621B730B840B950B39F415
:101510000A2661F0232B242B252B21F408950A267B
:1015200009F4A140A6958FEF811D811D089597F9BB
:101530009F6780E870E060E008959FEF80EC089579
:1015400000240A94161617061806090608950024A2
:101550000A9412161306140605060895092E03941C
:10156000000C11F4882352F0BB0F40F4BF2B11F490
:1015700060FF04C06F5F7F4F8F4F9F4F089557FDEF
:101580009058440F551F59F05F3F71F04795880FF1
:1015900097FB991F61F09F3F79F087950895121688
:1015A00013061406551FF2CF4695F1DF08C0161634
:1015B00017061806991FF1CF8695710561050894E5
:1015C0000895E894BB2766277727CB0197F90895FC
:1015D0000BD0C4CFB5DF28F0BADF18F0952309F09F
:1015E000A6CFABCF1124EECFCADFA0F3959FD1F3E6
:1015F000950F50E0551F629FF001729FBB27F00DC1
:10160000B11D639FAA27F00DB11DAA1F649F662715
:10161000B00DA11D661F829F2227B00DA11D621F64
:10162000739FB00DA11D621F839FA00D611D221F1E
:10163000749F3327A00D611D231F849F600D211D02
:10164000822F762F6A2F11249F5750408AF0E1F0A5
:1016500088234AF0EE0FFF1FBB1F661F771F881FEE
:1016600091505040A9F79E3F510570F060CFAACF2E
:101670005F3FECF3983EDCF3869577956795B795D9
:10168000F795E7959F5FC1F7FE2B880F911D969503
:10169000879597F90895991B79E004C0991F9617CB
:1016A00008F0961B881F7A95C9F780950895FA016E
:1016B000CF93FF93EF93223044F1253234F5C22FBC
:1016C000E894CA3049F497FB3EF490958095709564
:1016D00061957F4F8F4F9F4F2C2F332744275527DE
:1016E000FF93EF930E949B0BEF91FF91605D6A3334
:1016F0000CF0695D6193B901CA016050704080408F
:10170000904051F716F4CDE2C19310828F919F91D2
:10171000CF910C948B0BDC01FC01672F7191772327
:10172000E1F7329704C07C916D9370836291AE179C
:10173000BF07C8F30895A1E21A2EAA1BBB1BFD0127
:101740000DC0AA1FBB1FEE1FFF1FA217B307E407A0
:10175000F50720F0A21BB30BE40BF50B661F771FF8
:10176000881F991F1A9469F76095709580959095D8
:0E1770009B01AC01BD01CF010895F894FFCF9D
:10177E002D2D3A2D2D3A2D2D00486F757273203D6B
:10178E00202D2D003A2D2D3A2D2D006D696E75747C
:10179E0065203D202D2D003A003A2D2D00736563F6
:1017AE006F6E6473203D202D2D0053657420312003
:1017BE00746F207365742054003F065B4F666D7D19
:1017CE00077F6F37343144383532303936333D2B5D
:1017DE002D2A2F4F766572666C6F7720212121217D
:0217EE000000F9
:00000001FF
